:020000041000EA
:1000000000B5324B212058609868022188439860DF
:10001000D860186158612E4B002199600421596104
:100020000121F02299502B49196001219960352056
:1000300000F044F80222904214D00621196600F024
:1000400034F8196E01211966002018661A6600F04E
:100050002CF8196E196E196E052000F02FF8012189
:100060000842F9D1002199601B49196000215960AB
:100070001A491B48016001219960EB211966A021F2
:10008000196600F012F800219960164914480160C1
:100090000121996001BC002800D000471248134993
:1000A000086003C880F30888084703B5996A0420EC
:1000B0000142FBD001200142F8D103BD02B5186610
:1000C0001866FFF7F2FF186E186E02BD00000240BE
:1000D000000000180000070000035F00212200005C
:1000E000F4000018222000A00001001008ED00E03C
:1000F000000000000000000000000000070B8FD58A
:1001000000040420C50200104D460010C702001074
:10011000C7020010C7020010C7020010C70200107B
:10012000C7020010C7020010C7020010C70200106B
:10013000C7020010C7020010C7020010C70200105B
:1001400069530010A1530010D9530010015400103E
:10015000C70200103D560010C7020010C702001071
:10016000C7020010C7020010C7020010C70200102B
:10017000C7020010C7020010C70200100547001098
:1001800025470010C7020010C7020010C702001068
:10019000C7020010C7020010C7020010C7020010FB
:1001A000C7020010C7020010C7020010C7020010EB
:1001B000C7020010C7020010C7020010C7020010DB
:1001C00072B62C4880F308882B4880F309880220F7
:1001D00080F31488BFF36F8F28482949086003F023
:1001E0008BFE03F0A4F927482749224A914202DAFC
:1001F00008600431FAE725491F4A914202DA086093
:100200000431FAE72249234A234B14469A4204DA7E
:100210000868106004310432F8E719490C601F497E
:100220001F4A204B9A4204DA0868106004310432F5
:10023000F8E700201C491D4A914202DA08600431A7
:10024000FAE703F05BFE02F0DFFE194C194DAC42F9
:1002500003DA216888470434F9E701F0BDFE164C43
:10026000164DAC4203DA216888470434F9E7144993
:100270000847000000040420000C042000010010C6
:1002800008ED00E0555555550000042000040420F9
:100290000001001000010010C0010010F062001009
:1002A00000000020C00B0020C00B002044230020D1
:1002B000C0010010C0010010C0010010C0010010FA
:1002C000FB3E00107CE700F000F8FEE7F0B5444686
:1002D0004D4656465F46F0B46B46CB60C3689D46BC
:1002E000F0BCA046A946B246BB46F0BD04F02DFACC
:1002F00062B6281CA047002004F04BF9FEE704F08A
:1003000071F8024A024B1360FEE7C04604ED00E0BC
:100310000000008002B471464908490009564900AE
:100320008E4402BC7047C04602B471464908490079
:10033000095C49008E4402BC7047C04603B4714654
:10034000490840004900095A49008E4403BC7047DF
:100350007047C046D0238022052010B5802440215C
:100360001B0652025A62084AA402D067074A516427
:100370005C62074C20608024A40491645C62054B9D
:10038000CC331860916610BD0840014000C00140A8
:100390008C40014000400140D02380221B065202C5
:1003A0005A61802292025A61802292045A617047F7
:1003B00013000122002809D1042907D8042B05D8ED
:1003C00004324A430248D2185200125A10007047B1
:1003D000F85F001010B5FFF7EBFF10BD012070476C
:1003E00010B5FFF7FBFF10BD0120704701207047DB
:1003F00010B5FFF7FBFF10BD704710B5FFF7FCFF0E
:1004000010BD000013B5019110496B4609780090AA
:10041000002915D15B79002B0DD0002A0BD000F0FC
:10042000CBFC04000100009800F09EFC2000009925
:1004300001F0CAFA16BD009800F0AAFC0400F5E726
:10044000009800F0B9FC0099F2E7C046C80B002004
:1004500010B504000A000188408800040843A18800
:10046000FFF7D0FF10BD10B504000121FFF7F0FF2A
:100470002100FFF7B5FF10BD10B504000021FFF704
:10048000E7FF2100FFF7B9FF10BD0123834010B53E
:1004900098B200F0BEFB10BD10B504000120A040D2
:1004A00080B201F05DF82000FFF7EFFF10BD0120E2
:1004B000704710B5FFF7FBFF10BD000010B504003A
:1004C00000F058FB2000FFF7F4FF024804F069F841
:1004D00010BDC04690D0030010B50120FFF7EEFF1D
:1004E00002F088FD10BD10B50020FFF7E7FF02F015
:1004F00073FD10BD70B501210500FFF7A9FF2900AC
:100500000400FFF775FF00283CD02900200001F00F
:100510007FFD002836D02900200002F0C5FA00280F
:1005200030D02900200002F089F900282AD02900C3
:10053000200002F059F9002824D02900200001F001
:100540003DFB00281ED06B79002B0CD0144B9C4235
:100550001FD00CD8134B9C4218D0134B9C4213D085
:10056000033B9C420CD02800FFF73EFF0BE00F4BF3
:100570009C4211D00E4B9C42F5D100F0B9FFF2E73E
:10058000FFF7AAFF002070BD00F0C8FFFFF7ABFF28
:10059000F8E700F0B9FFE6E700F0BBFFE3E7C0468D
:1005A0005A7C0000017C0000037C00005B7C0000A2
:1005B0005C7C000010B502F046FC00F01AF810BD9B
:1005C00010B500F01BF802F043FC10BD012070478D
:1005D000704770B5051CFFF7F9FF041E02D0281CF8
:1005E000FFF7F6FF200070BD704710B5FFF7F1FF71
:1005F00010BD10B50020FFF7F8FF10BD10B502F0D8
:10060000ADFAFFF7F2FF10BD10B502F0A7FA074BE5
:1006100004001A78824207D0187002F089FC044B5B
:1006200018602000FFF7E1FF10BDC046C00B00209E
:10063000C40B002030B50B0A85B0DBB26C460090CD
:100640000191002B01D000F04FFE00236A46D381B8
:10065000009B02AD0293A388AB80DBB2002B05D1D7
:100660000298696800F0A0FD05B030BD2800FFF7D2
:10067000FAFE0028F4D1F7E7037910B5012B02D177
:10068000008800F0BBFB10BD10B5041E11D0031F85
:10069000DBB2A02B0ED802F0A3FA002804D0200071
:1006A00002F024FB00F0BAFE200002F003FB00F091
:1006B000B5FE10BD03002033DBB2072BF9D80723AA
:1006C00001201C40A040C0B200F0E8FDEFE710B5EB
:1006D000002807D0031FDBB2A02B04D802F006FBD2
:1006E00000F09CFE10BD03002033DBB2072BF9D8CD
:1006F00007231840063B8340D8B200F0D7FDEFE750
:1007000070B504000D00FFF7BFFF0120002D0ED0D3
:1007100000230A4A2800002105F046FC0023084A6D
:1007200080185941FA220023920005F035FC03F0AD
:1007300038FF2000FFF7CBFF70BDC04640420F00DE
:10074000E7030000002110B5392800D15031FFF730
:10075000D7FF10BD10B5002803D000F09FFD00F0BA
:100760005DFE10BD10B5002803D000F09FFD00F025
:1007700055FE10BDF0B585B087790C1C4579029007
:1007800000F07CFD23043F0901900393002828D04A
:100790000195002D25D023041B0E0F221900914333
:1007A00040290FD0E1B20A0000202032D2B20190DD
:1007B000072A16D91F229343202B03D1012910D9D0
:1007C00087420ED00022A84B01925B785B0708D5C8
:1007D000022000F05DFE00F051FD01234340DBB23A
:1007E00001932304180F0B283ED8FFF7A7FD0C0038
:1007F0000C00560056003D003D003D003D00B2009B
:100800000D012001200126052304360F1B0E0F2B9E
:1008100000D93601E4B2002D12D0002E0BD02300F7
:100820002033DBB23000072B01D9002C05D100F0BA
:1008300035FD00F0F3FD200050E000F045FDF8E745
:100840002000FFF744FF002E0ED023002033DBB240
:100850003000072B01D9002C02D100F027FD01E068
:1008600000F03AFD00F0DAFD019B002B13D000F000
:10087000FDFC012302001A4018420CD1029B5A7160
:1008800000F0EEFC00F002FA029800F045F900F0EA
:10089000E7FC00F007FA05B0F0BD0F22230426059F
:1008A0001B0E360F9343202B00D03601E4B2002CF0
:1008B00006D0012C36D0002D3FD0002F1CD0BAE737
:1008C000694B5B785B0713D4002D0AD0002E04D04F
:1008D000300000F0E3FC00F0A1FD0020FFF7D4FEA3
:1008E000C2E72800FFF7F3FE002EBDD03000B4E7CA
:1008F000002D0BD0002F03D13000FFF72BFFB3E703
:10090000012FB1D1300000F00FFDADE7002FABD1CA
:100910003000FFF727FF300000F014FD300000F03A
:10092000EFFCA1E7002D02D0052F9DD8E4E7042FAE
:100930009AD83000FFF716FF96E7002FF9D0012074
:10094000392C00D1494803F02CFE2000FFF7BFFEF0
:100950008AE723049B019B0F28D1002D18D1220682
:10096000520F92002307D2B21B0F934098B2E106B8
:1009700003D50F359540ED43ADB22405A40F2843B0
:10098000022C0DD0032C0ED0012C06D000F050F913
:1009900002F0E4F8FFF729FE66E700F03FF9F7E719
:1009A00000F050F9F4E700F034F9F1E7A3059B0FEC
:1009B000DAB2002D1CD0DB07EAD523065B0F9B00C3
:1009C0002207DBB2120F9A40002092B2E10603D553
:1009D0000F309840C04380B22405A40F1043022C6E
:1009E0000CD0032C0DD0012C05D000F07DF9CFE701
:1009F000012ACDD9E1E700F06DF9C9E700F07EF9F1
:100A0000C6E700F02FF9C3E7E6B22405240F002D56
:100A100006D0200000F03AF93000FFF79BFEB7E760
:100A20003000FFF79FFE200000F03CF9B0E7E6B28F
:100A30003000F038042840D8FFF776FC03280F1A5E
:100A40002400002D06D0042FA2D8E004C00E00F030
:100A500035F99DE7052F9BD8F7E7E004C00E002D80
:100A6000E2D100F013F993E714220020803801004E
:100A7000002D04D0E004C00E00F001F988E700F07A
:100A8000F9F885E71A4B5B785B0704D4E004C00EE5
:100A9000002DC9D0E5E7002D05D0E0040321C00EEC
:100AA00000F0D4FC74E7012000F0F2FC012F00D824
:100AB0006EE7022000F0ECFC6AE7002D08D0002F62
:100AC00003D03000FFF7E0FD62E7E004C00EC8E7A6
:100AD000002F09D00120392E00D1064803F061FD16
:100AE0003000FFF7F4FD53E7E004C00E9CE7C0467A
:100AF000142200208038010070B50400218840795C
:100B000000F086F9051C00F003F900F081F8291CBB
:100B10002000FFF72FFE70BD037910B50400002BF5
:100B200011D0FFF7E7FC00280ED100F0A7FB00284A
:100B300009D06379002B06D0074B5B785B0702D5A1
:100B4000022000F0A5FC10BD2000FFF7D5FF20001B
:100B5000FFF792FCF7E7C0461422002010B500F022
:100B6000C3FB00F05BFC10BD10B502F0DBF8FFF733
:100B7000F5FF10BD10B500F0A1FBFFF7F5FF10BDAC
:100B8000C2B20004000F062818D00F2306280ED882
:100B90000E3003400020012B08D80120F02A05D098
:100BA00007D80020E72393424041C0B27047063087
:100BB000EFE7F43A100043425841F6E71000F138ED
:100BC00043425841E721002391425B411843EDE73E
:100BD00003000279002010B5824204D0188800F08A
:100BE0000DF9FFF7CDFF10BD82B002B0704782B0A3
:100BF00002B07047704710B5FFF7FCFF10BD000052
:100C000010B5FFF7F8FF014B188010BDDC0B00207A
:100C1000704710B5FFF7F4FF10BD000010B5034B8F
:100C20001B881843FFF7ECFF10BDC046DC0B00200B
:100C300010B5034B1B881840FFF7E2FF10BDC046FC
:100C4000DC0B002010B5034B1B885840FFF7D8FF82
:100C500010BDC046DC0B0020704710B5FFF7FCFF4D
:100C600010BD000010B5FFF7F8FF014B188010BD54
:100C7000DA0B002010B50020FFF7F4FF10BD0123B0
:100C8000834010B598B2FFF7EDFF10BD01238340FC
:100C9000034A10B51088184380B2FFF7E3FF10BD78
:100CA000DA0B00200123834010B5034A10889843D3
:100CB000FFF7D8FF10BDC046DA0B002001238340A8
:100CC000034A10B51088584080B2FFF7CBFF10BD23
:100CD000DA0B002010B5034B1B881843FFF7C2FF47
:100CE00010BDC046DA0B002010B5034B1B8818401E
:100CF000FFF7B8FF10BDC046DA0B002010B5034B5C
:100D00001B885840FFF7AEFF10BDC046DA0B00202D
:100D1000704770B50126CB089B00D2180723350019
:100D200019408D400021EDB20300CB40545C3340AC
:100D30005B4263402B405C40545401310429F3D1A1
:100D400070BD30B5072400220440C0088000091897
:100D5000012510008B5CE3402B4093400132184387
:100D6000C0B2042AF6D130BD13B584B201AB1880ED
:100D7000240A0800042C08D81B78042B05D8052168
:100D80006143024A5918FFF7C4FF13BDC90B002085
:100D900007B582B201AB1880120A0020042A08D8D5
:100DA0001B78042B05D80530504302491818FFF76B
:100DB000C8FF0EBDC90B0020F7B50F2401270D4A4F
:100DC0000D4B12881B8801AE1A4330800092009BA5
:100DD00023413B4204D1013CF9D200252800FEBD4D
:100DE000E5B22800316800F0FFFD80B20128F2D0A2
:100DF000F4E7C046DA0B0020DC0B002007B501AB9E
:100E000018800198FFF7D8FF019900F0EDFD0EBDA5
:100E100013B501AB19800E4B1B78002B03D0019842
:100E2000FFF7ECFF16BD00280CD00198FFF7C4FFB8
:100E3000040001000198FFF797FF2000019900F0DE
:100E4000D3FDEFE70198FFF7A3FF0400F5E7C046E5
:100E5000C80B002070B507250B4B1C780B4B1B787B
:100E6000A34200D170BD0A4BE200D15A9B185888AA
:100E70009A8800040843D988013409041143FFF714
:100E8000B6FE2C40EAE7C046DE0B0020DF0B002058
:100E9000E00B0020064B10B558881A88D98800044A
:100EA00010439A8809041143FFF7A1FE10BDC04604
:100EB000200C0020F8B51A4883790F2B2BD84379E2
:100EC000002B28D0174B05881A78174B46881C78BA
:100ED00007239C46154FA2421DD0D300DB19197978
:100EE000002919D01988A94216D15979002913D19E
:100EF0005988891B89B2C7290ED80F2410218279FD
:100F000022400A4382719A79224011439971FFF776
:100F100003FEFFF79FFFF8BD634601321A40DAE790
:100F2000200C0020DE0B0020DF0B0020E00B002057
:100F3000F7B50E4C0E4B24781B7801940D4C019D97
:100F4000AB4201D10020FEBDDE00A5196F788F42B3
:100F500005D1365D864202D16D79954203D10725D0
:100F600001332B40EBE70120EDE7C046DF0B00200B
:100F7000DE0B0020E00B0020F0B5040087B002AFCC
:100F800006220100380004F0F3FF864D66792B79C4
:100F90002279002B18D1002A00D1CEE0002E00D1FA
:100FA000F7E02000FFF714FE002800D1F1E008224E
:100FB0002100280004F0DCFF2800FFF75DFBFFF7AD
:100FC00079FFFFF767FFB8E0638801936B790199B8
:100FD00000936B88CB1A00999BB2002900D1AEE038
:100FE000C72B00D986E0002A00D1A6E0AB792A8879
:100FF00021880F2B54D8914211D1002E4BD10F22B2
:10100000134001321343AB71FFF744FF2800FFF791
:1010100083FDAB79A3710025280007B0F0BD002E39
:1010200039D125786778320039002800FFF780FF32
:10103000280032003900FFF77BFF051EEBD1029834
:10104000FFF7DCFEC3B200040F21020F032A08D809
:10105000012A0FD9000E014211D0A2790F2A0ED811
:10106000DAE706320A40012A0ED92000FFF754FDC4
:10107000009DD1E7000E014201D0002BCCD02033DF
:10108000DBB2072BC8D9F0E7EF2BC5D90F33DBB2A2
:10109000022BC1D9E9E70123AA791343AB71BAE75F
:1010A00091420BD1002E09D1A3712000FFF734FD2E
:1010B00008222100280004F05BFF82E72000FFF7F0
:1010C00087FD002865D0002E63D0AB791F2B0BD98C
:1010D0002A8804A80280019A42802A7983710271C9
:1010E00000224271FFF718FD08222100280004F0B9
:1010F0003FFF64E7AB790F2B0ED802987968FFF7B2
:1011000073FD2800FFF708FD08220021280004F0E5
:1011100027FFFFF7BFFE7EE7002A0ED0298822882E
:101120009142CBD1002EC9D12000A371FFF7F4FC6E
:1011300008223100280004F013FF01256CE7C72BBB
:101140002BD8002AF9D0002E23D02A8823889A424F
:1011500016D1AB79DA070DD40F2B0BD90F21A37160
:101160008B43F02BA1D0A3791A09013212010B4055
:10117000134399E708222100280004F0F9FEDCE778
:101180002000FFF725FD0028AED10123AA791343E3
:10119000AB712000FFF7C0FCCFE702987968FFF73A
:1011A00023FDB1E7200C0020F0B585B00090684623
:1011B0006C460191FFF7E0FE2379071E244E254D72
:1011C0000CD0002B03D000980199FFF710FD0727E2
:1011D00028783378834222D105B0F0BD02AA03CC2F
:1011E00003C2002BF3D0072233785C1C14402A780A
:1011F00094420AD01848DB000822C01802A904F063
:10120000B7FE3470FFF726FEE1E7FFF7B3FC0822D4
:101210003900124837702F7004F0A2FED7E70E4C49
:10122000C0000019FFF7A8FE0028D5D02B78DB00FE
:101230001A5BE4186088E188A38800040904194354
:101240001043FFF7D4FC2B7801333B402B70BFE7F2
:10125000DF0B0020DE0B0020E00B0020200C002024
:10126000014B1878C0087047500C0020024B1878CA
:10127000072318407047C046500C0020034B1878D5
:1012800007231840431E9841C0B27047500C0020FD
:10129000014B18787047C0467C0C0020024B1A782E
:1012A000104318707047C0467C0C0020024A137827
:1012B000834313707047C0467C0C00200022014B12
:1012C0001A7070477C0C0020024B1A78104318707B
:1012D0007047C0467B0C0020024A1378834313708A
:1012E0007047C0467B0C00200022014B1A707047EB
:1012F0007B0C0020704710B5FFF7FCFF10BD00000D
:10130000030010B5044A1078034203D098431070CC
:10131000FFF7F1FF10BDC046510C0020704710B51B
:10132000FFF7FCFF10BD0000010010B5044A137860
:101330001940814203D003431370FFF7F0FF10BD43
:10134000520C0020030010B5044A1078034203D069
:1013500098431070FFF7E3FF10BDC046520C002009
:1013600010B5044B1A78002A03D000201870FFF73C
:10137000D6FF10BD520C002010B5094A094B147855
:101380001B781C43084B1B78002B06D01C4301F034
:1013900005FC002801D0FFF7E3FF200010BDC04688
:1013A0007C0C00207B0C0020520C002070B50B4CF4
:1013B0002568FFF7E1FF28702468094D08222900FD
:1013C000200004F0BFFD002807D0082221002800DB
:1013D00004F0CEFD200001F0CBFB70BDC40700205F
:1013E000480C002070B50B4C2568FFF7C5FF6870EE
:1013F0002468094D20222900200004F0A3FD0028C4
:1014000007D020222100280004F0B2FD200001F0C6
:10141000B9FB70BDC0070020280C002010B501F0FA
:10142000E7FC012806D1054B1B787F2B02D9FFF77B
:10143000D9FF10BDFFF7BAFFFBE7C046142200201A
:10144000704710B5FFF7FCFF10BD0000094B10B549
:101450005B785B070AD5084CC30019432170FFF77E
:1014600015FC2078C008FFF7ECFF10BDFFF70EFC5D
:10147000FBE7C04614220020500C0020002010B5CD
:10148000024B1870FFF7DDFF10BDC046500C002066
:1014900010B5094A13781900814311704A070AD11F
:1014A000994208D0054B5B785B0704D5C808FFF765
:1014B000F9FBFFF7E3FF10BD500C002014220020C1
:1014C0000A4A10B553785907C90F81420CD001213F
:1014D0000840033180008B4303435370108800F0B1
:1014E0004AF80220FFF7D4FF10BDC04614220020A6
:1014F000044B10B5587801234007C00F5840FFF740
:10150000DFFF10BD1422002010B50120FFF7D8FF27
:1015100010BD10B50020FFF7D3FF10BD10B500209F
:1015200000F05FFE0020024900F03FFE10BDC04603
:10153000FFFF000010B5002000F0DCFD024BC018DA
:1015400043425841C0B210BD1B01FFFF10B502203D
:1015500000F0C4FD10BD10B5032000F0BFFD10BDAC
:1015600010B5C1B2032000F014FE10BD10B5042068
:1015700000F0C0FD10BD10B50100042000F015FE04
:1015800010BD10B501000F2000F01BFE10BD10B5FE
:101590000100132000F015FE10BD10B50020FFF76C
:1015A000F6FF10BD10B50020FFF7EBFFFFF7F5FFCA
:1015B00010BD000007B5002000F013FE00201C49FC
:1015C00000F0F3FD0021022000F0E3FD0120194BA3
:1015D0001880FFF7C5FFA0210420490100F0E5FDB8
:1015E0000021062000F0D5FD0021072000F0D1FDEC
:1015F0000021082000F0E5FD0021232000F0C9FDB6
:1016000000210C2000F0C5FD00210D2000F0C1FDDF
:10161000002300221721009201936846083200F04F
:101620009BFD00211F2000F0CCFDFFF7BBFF07BD95
:10163000E5FE0000DC0B002010B5FFF7BBFF10BD7E
:1016400010B501000E2000F0A4FD10BDF7B501F0AB
:10165000B1FC094E0400338883420BD06D4600274D
:101660002F8001F0A7FCAF80688000980199FEF7F9
:10167000E1FF3480F7BDC0467E0C002010B501F0BC
:1016800057FC024B1860024B186010BD8C0C0020F8
:10169000880C0020704710B5FEF75CFE10BD10B539
:1016A000FEF77AFE10BD01207047000010B5054816
:1016B00000F098FA00F091FDFFF7ECFFFFF7EBFF69
:1016C00010BDC046B91B00100120704710B5FFF7D0
:1016D000FBFF10BD7047704710B5FFF7FBFFFFF72A
:1016E000FAFF10BD10B5FFF725FF002801D1FFF765
:1016F000A3FFFFF72BFF084B1870FFF737FF074BCF
:10170000188001F06DF8FFF726FFFFF782FA044B0F
:101710001888FFF7A2FA10BD900C002014220020B8
:10172000DA0B002010B501F0FFFB00F0D9FBFFF74A
:10173000D9FFFEF759FF8022064B524219780A431F
:101740001A701888FFF717FF01F0BEFEFFF7A7FF1A
:1017500010BDC04614220020F0B587B0FFF7A3FFEC
:10176000002805D1FFF772FFFEF74EFF07B0F0BD6E
:1017700000F0CEFB0024274DE0B22E5D00F042FACF
:10178000042C44D001348642F5D0234B1B789B07B0
:1017900001D500F03DFAFFF799FF00240390009572
:1017A000200000F02FFA009B01901B78984224D073
:1017B000002501264340DBB20293029B1E4213D058
:1017C000039B002B10D004AF3D707C7001F0F2FB46
:1017D00001233B71019B788033405A1E93417B71FA
:1017E00004980599FEF726FF01357600EDB2F6B2B2
:1017F000052DE2D1009B019A1A70009B0134013340
:10180000E4B20093052CCBD1FFF738FFACE786425A
:10181000BBD1A7E7800C0020900C002070B500F031
:10182000EDF8A4230400DB0198423FD2A023DB01A2
:10183000984200D38CE0E72812D8DF2807D8A428E4
:1018400007D8032803D8013C63425C41A4B2201CA2
:1018500070BD0200CD3A92B2122A3DD90024F6E7BB
:101860008023DB01984217D28026B601B0427ED297
:10187000431EFF3B013EFF3E9BB2B342EED2000A45
:10188000C0B200F04DF90500E0B200F0B7F82D024B
:101890003540284384B2DAE7C0B200F0AFF8F02355
:1018A0001B0123403A4C18430443CFE7A523DB0137
:1018B00098421DD2374B984237D8374B98420DD8B3
:1018C000364B98422BD80322C4B2A3081440023AE4
:1018D000A2405B01324C13431C43B7E703210122B2
:1018E00001408A40C3065B0F5B012E4C1343F3E7B4
:1018F0002D4B984208D81F202C4B20409C421ED8CC
:101900002B4C00020443A2E72A4BC3189BB21F2BA7
:10191000A4D8F82304025B011C40274B03E01F23DB
:10192000264C03401B021C4391E703210122014086
:101930008A40C3065B0F5B01214C1343CCE700F0E8
:10194000EFF8F823802400025B011840A401D9E7D6
:101950001F20204000F0E4F8E3051B0F1B0202B239
:10196000C00601D5120112B2164C1343B4E7C004ED
:10197000C00E00F0D5F80500E0B200F03FF8F82303
:101980002D025B011D4005432E43B4B25FE7C04604
:1019900000A0FFFF5F5200003F5200001F520000F6
:1019A000008DFFFF008CFFFFBF5200009F52000020
:1019B000F4A0000040ADFFFFF0A00000F1A0000087
:1019C000008AFFFF0090FFFF07B58BB201AA1180CC
:1019D000190A0023042905D81278042A02D8FEF730
:1019E000F9FC030018000EBD07B501AB1980019981
:1019F000FFF7EAFFFFF712FF0EBD0000030010B56E
:101A0000E7280AD8DF280AD8312800D173E00FD898
:101A1000292866D02A2800D174E0180010BDE038CB
:101A20000728FAD8FEF776FC18F927303DF9474C1D
:101A3000392808D0822806D03528EED1374A1278C6
:101A40009206EAD506E0354A1178890761D15278C5
:101A50001207E2D52923E0E730480121027814007B
:101A60000C400A4245D140780842D6D02300D20625
:101A7000D3D4E323D1E7294A12785107CDD50023E7
:101A8000D206CAD4E333C8E72449E2230A785007D0
:101A9000C3D4487801210400023B0C400842E5D041
:101AA000BBE71E4A51788907B7D512780023D206C2
:101AB000B3D4E733B1E7194A12781107F6D4ACE78B
:101AC0001649E6230A781007A7D4487802210400B3
:101AD000023B0C400842A0D12300D2069DD4E7234C
:101AE0009BE70E4A1178890615D45278120700D464
:101AF00093E7392391E7094A1278520600D48CE71C
:101B00002A238AE7054A1278520600D485E7312352
:101B100083E7E02381E735237FE7C04614220020D6
:101B200030B5244C21784B070DD514220240043ADD
:101B300053425A4118230340083B5D426B419A428D
:101B400001D00C2358400B070DD514220240143A43
:101B500053425A4118230340183B5D426B419A425D
:101B600001D00C2358406478E3070DD511220240C0
:101B7000013A53425A4118230340083B5D426B41EE
:101B80009A4201D009235840A4070DD511220240E2
:101B9000113A53425A4118230340183B5C426341B7
:101BA0009A4201D009235840C90601D51823984309
:101BB00030BDC0461422002000207047074B10B5EE
:101BC000C31801241F2B06D84C79002C03D11F23E6
:101BD0001840FEF761FC200010BDC04620ADFFFF9D
:101BE00000207047014B18607047C046C8070020AE
:101BF000704710B5FFF7FCFF10BD704710B5FFF739
:101C0000FCFF10BD014B185C7047C0461B22002032
:101C1000704710B51E2002F0C9F910BD10B505209F
:101C200004F0F2F85B4B0400984200D8B1E05A4946
:101C300004F0DAF9594A0300944200D898E00722E8
:101C4000C008013813400F2800D991E0FEF776FB59
:101C50008800800078007000680060005800500024
:101C60004800400038003000280020001800100014
:101C7000C046C046C046C046C046C046C046C04634
:101C8000C046C046C046C046C046C046C046C04624
:101C9000C046C046C046C046C046C046C046C04614
:101CA000C046C046C046C046C046C046C046C04604
:101CB000C046C046C046C046C046C046C046C046F4
:101CC000C046C046C046C046C046C046C046C046E4
:101CD000C046C046C046C046C046C046C046C046D4
:101CE000C046C046C046C046C046C046C046C046C4
:101CF000C046C046C046C046C046C046C046C046B4
:101D0000C046C046C046C046C046C046C046C046A3
:101D1000C046C046C046C046C046C046C046C04693
:101D2000C046C046C046C046C046C046C046C04683
:101D3000C046C046C046C046C046C046C046C04673
:101D4000C046C046C046C046C046C046C046C04663
:101D5000C046C046C046C046C046C046C046C04653
:101D6000C046C046C046C046C046C046C046C04643
:101D7000581E07280DD8FEF7D7FA0B0A09080706E0
:101D80000504C046C046C046C046C046C046C04620
:101D9000C04610BDFF083D0000093D00FF50250270
:101DA00010B5FFF736FF10BD10B572B6D023BE21B7
:101DB0001B0649005A58002AFCD0BFF35F8F01224E
:101DC0008240084C9A62C200121905245460064AE7
:101DD000800080184A224260BFF35F8F5B5062B67A
:101DE00010BDC0460040014000C0014070B50A4C23
:101DF0000A4D2068431C01D0FFF7D6FF0434AC42E3
:101E0000F7D1074C074D2068431C01D0FFF7CCFFEA
:101E10000434AC42F7D170BD406000105460001033
:101E20002C60001040600010F7B5294B0D000093A6
:101E3000009A8B009B5801905A1C48D072B6D02251
:101E4000BE211206490050580028FCD0BFF35F8F16
:101E5000012420001F4EDF009840BF190526506264
:101E60007E601D4F9B00DB1940275F609061BFF3D0
:101E70005F8F525062B6FFF7D1FE2200310000247E
:101E80009446164F38680023461C07D0D0231B0603
:101E90005B68C34060460340013B134001391C436B
:101EA0005200C9B2E4B2D2B204370029EAD1009A92
:101EB000AB00D058431C01D0FFF776FF21004B1E2A
:101EC00099412800C9B2FFF76BFF019B5C55F7BD34
:101ED000406000100040014000C001402C60001034
:101EE00010B5FFF783FF05220021074804F038F8FA
:101EF00005220021054804F033F8052000F038F8E9
:101F0000FFF777FE10BDC0461B22002016220020DE
:101F100073B505220021684604F022F80024210050
:101F200001346846E4B2FFF77FFF052CF7D10E4D70
:101F300022006946280004F005F80600731E9E4141
:101F4000F6B2002804D022006946280004F010F8F8
:101F5000330005222800054900F00CF80400FFF7C3
:101F60004DFE200076BDC046162200201B22002018
:101F700070470000F7B506001C1E134F0091019238
:101F800007D001233B7000F0D3FF104B18600020F6
:101F9000FEBD3D78002DFAD00C4B186801F016F804
:101FA0000428F4D93100019A009803F0CBFF0028EF
:101FB00005D03100019A009803F0DAFF2C000023CD
:101FC00020003B70E4E7C046980C0020940C0020F1
:101FD00010B5FFF7C1FB10BD10B500F065FF01F0B3
:101FE000B4FAFFF763FB01F0B5FAFFF79BFB01F0D2
:101FF000C7FA01F0CDFAFFF7EBFF01F0E7FAFFF7C0
:102000006BFBF6E701207047012070470120704705
:10201000F0B52E4B85B0C418A3B20500012602917D
:102020003F2B24D80B79002B21D0FFF7EFFF00289E
:102030001CD0292C1AD8029A254F52793B78254C6E
:102040000392002A16D02A0023494032D2B28A5C79
:102050009B199109605C5BB2024362543B70320091
:102060000093280023000299FFF7CEFF00263000DE
:1020700005B0F0BD013B5BB23B703200009328001D
:1020800023000299FFF7C0FF0028EFD00023FB5682
:10209000002BEBDC039B210030003B70FFF7B2FF0D
:1020A0000422011E039D0CD0605D002801D001F0C8
:1020B0000DFA0135042DF7D1002001F007FA2A00AE
:1020C0000021200003F04CFFD0E7C046408BFFFF0B
:1020D000990C00209A0C00205460001013B56B4638
:1020E000DC1D0023010001222000237000F07DF898
:1020F000207816BD13B56B469C1D002301000222FB
:102100002000238000F071F8208816BD002307B559
:10211000010001A80422019300F067F801980EBDA8
:1021200007B56A460300D01D01700122190000F0B6
:1021300063F807BD07B56A460300901D01800222BF
:10214000190000F059F807BD07B5042201910100FC
:1021500001A800F051F807BDF8B51400D31D6A4678
:10216000DB08DB00D31A00AF9D460500220068465D
:102170000E0000F03AF822006946280003F0E2FE63
:10218000002804D022003100280000F035F8BD46B8
:10219000F8BD70B50D000400FFF7A0FFA84203D002
:1021A00029002000FFF7BCFF70BD70B50D000400D2
:1021B000FFF7A0FFA84203D029002000FFF7BAFFD5
:1021C00070BD70B50D000400FFF7A0FFA84203D05A
:1021D00029002000FFF7B8FF70BD10B500F07AF9B4
:1021E00010BD10B500F048F810BD030010B5080090
:1021F000190000F059F810BD030010B508001900CF
:1022000000F0BEF810BD0000802210B5054C002182
:102210002000520103F0A4FE8022034B5201A35080
:1022200010BDC046A00C00200810000070B5064D7F
:10223000064C02202B5D002B05D100F021FA00286E
:1022400001D00120285570BDA00C00200410000012
:1022500070B5074D074C02202B5D002B06D000F017
:1022600041FA002802D0002301202B5570BDC04642
:10227000A00C00200410000070B5FFF7D7FF040089
:10228000051E03D1FFF7E4FF200070BD00F0FAF94E
:102290000400FFF7B9FF012DF6D1FFF7D9FF431E68
:1022A00098410440F0E70000030070B580249D18B9
:1022B000080064010021A54204D80349591803F01D
:1022C00057FE0121080070BDA00C002073B500F07E
:1022D000D9F90024A04224D0FFF7A8FF8022124D94
:1022E000060029002000120100F0E0F9A04210D001
:1022F00080210E4A0E4B2800490100F00BFA009095
:102300000191802004226946400100F0CFF9440089
:10231000E4B2012E01D1FFF79BFF8023054A5B0148
:10232000EA50200076BDC046A00C00202523228460
:10233000E49CF2CB0810000080218022054B49016B
:102340005B58012010B59201934201D3FFF7BEFF05
:1023500010BDC046A00C002070B58024074D64015C
:102360000100285900F0B4F903000020834204D092
:102370002B5902332B51FFF7DFFF70BDA00C00205B
:102380008023F0B5160087B08218050001915B012B
:102390009A4215D84E4F3200C7193900019803F000
:1023A000D1FD012400280CD032000199380003F03F
:1023B000DFFDFFF73BFF039000282CD1FFF748FF1C
:1023C0000024200007B0F0BD012E31D0EB072FD440
:1023D0008023DB019D423ED2019A019B50781B78FD
:1023E00000021843012823D8434258411F2340428A
:1023F000984360386B0A18436B08DBB21B02C0B20B
:102400001843FFF7A9FF0400012809D1019B023EF0
:10241000023502330193002ED6D1FFF78DFF040061
:10242000039B012BCDD1FFF713FF0028C8D0C8E7CD
:102430003F2D10D84020019B28431B78C0B21B02BF
:102440001843FFF789FF04000128E9D1019B013EF1
:1024500001350133DEE70296052E01D905230293EB
:10246000002300240722049305942B0C1340029AA6
:1024700004AFD20013430199029A3B70F81C2B0A57
:102480007B70BD7003F074FD3888FFF765FF0400B2
:102490000128C5D17888FFF75FFF04000128BFD16C
:1024A000012E0DD0B888FFF757FF04000128B7D1DF
:1024B000032E05D9F888FFF74FFF04000128AFD19C
:1024C000029A029B9446F61AED18019B6344A1E719
:1024D000A00C0020F0B589B0FFF796FE00F0C2F81E
:1024E000002805D1FFF790FE0024200009B0F0BDC0
:1024F0008022584C00202100120100F0F5F800283D
:1025000031D08021544B554A2000490100F002F996
:10251000060080200D00042206A9400100F0E4F826
:10252000069BB34202D1079BAB4201D0FFF76CFE82
:102530004B4E04AB9D1D2900300000F0E5F800284B
:102540005CD02B88002B58D004AA1381DAB2B51CBA
:10255000910901295AD002295DD080277F010029E5
:1025600004D0E55164E0FFF74FFEBBE70A2104AB5E
:102570002800C91800F0C8F80028F2D004AB1A7A75
:10258000E0231104DB021940092304A81B18187862
:102590005B78351D1B0203435BBA9BB21943D3081A
:1025A000039307230191D1081940019B02915B1805
:1025B000BB42D6D830231A4206D0280007A900F023
:1025C000A3F80028CDD0B51D039B5B0708D50E21CD
:1025D00004AB2800C91800F097F8002836D002355F
:1025E0000B21019B029AE01804ABC91803F0C0FC50
:1025F00080232E009B019D429BD3012080235B0101
:10260000E650002814D0FFF797FE13E03F211B0A85
:102610000A40A354ECE7F8205102800101408020D9
:102620001B0A5B000B43591C4001814208D3255013
:10263000FFF74CFE041E00D057E7FFF7E5FD54E717
:102640009206D20FE25400236354D1E780235B014A
:10265000E550EDE7A00C0020E49CF2CB252322847A
:1026600008100000802210B503495200034803F00F
:102670007FFC012010BDC046000000102C1D002072
:102680000120704710B5EFF3108372B68021FF2050
:10269000054C89014003236003F076FC236883F333
:1026A0001088012010BDC046281D002010B5EFF392
:1026B000108372B6054C2360FF235B03C01803F040
:1026C0008BFC236883F31088012010BD281D002097
:1026D00007B56B46D980063301221900FFF7E6FFE4
:1026E00001200EBD0120704710B55200054C121894
:1026F000091A904201D1012010BD035BDB430B524C
:102700000230F6E700E01F1010B50122FFF7ECFFE2
:10271000012010BDF0B514001D008BB041180991C7
:102720000890099B089A934203D8200029000BB017
:10273000F0BD089B6A011B78290063401E001B0244
:10274000079300230693F30E1A437301019200933B
:1027500012220023300003F027FC2F00009C019D73
:1027600024184D41A4197D41730EFA011A43F30157
:1027700003920293029A039BA4185D41330E3A021E
:102780001A43330205920493049A059BA4185D41F1
:10279000069A079BA4185D41089B01330893C0E784
:1027A00010B5FEF7BBFE10BD10B50020FFF72AFAEA
:1027B0000123184010BD000010B5FFF7A9FB074822
:1027C00001F0EFFEFFF7A4FBFFF7EEFF002803D0B8
:1027D000FFF7E6FF00F00EFC10BDC04630750000AC
:1027E00010B5FFF7E9FF10BD124A10B501230C0028
:1027F000904215D1FEF74CFD617903000E4A002985
:1028000010D0AA210B401900481E814129201170C7
:10281000002B00D00C3000F04DFAFEF7FFFD002336
:10282000180010BD13782920002B00D00C3000F0C8
:102830005DFAF2E7167C00002C1E002070B5050042
:102840004879002800D1CCE0674BEB18222B00D947
:10285000ABE0FEF78BFE654C654B2080E818212825
:1028600012D8FDF761FD3FAD48191C4B1F4E57288C
:10287000A52B5A2E5D8731608F37676D2251255405
:102880003B6A7A99A31543B50123227813434FE09D
:102890000823627813432CE002232278F6E704230E
:1028A0002278F3E708232278F0E701236278F1E742
:1028B00002236278EEE710232278E7E720232278CC
:1028C000E4E740232278E1E7FEF754F980232278F9
:1028D0005B42DBE70C2322789A43D7E70323627835
:1028E0009A43D7E701222378934321E008226378B3
:1028F0009343637053E002222378F5E704222378A0
:10290000F2E708222378EFE701226378F0E702225A
:102910006378EDE710222378E6E720222378E3E7C7
:1029200040222378E0E7FEF725F97F222378134041
:10293000237034E00C222378D6E703226378D7E7AC
:102940000122042023785907C90F8A439100834349
:102950000B430821D2008B4398E7012108006378DC
:10296000DA07D20F904302228B4303434100934383
:102970000B43BEE7012223785906C90F8A4392010F
:102980004021E8E7FEF7F6F801222378D9094A400A
:102990007F21D2010B4079E70120FEF751FE20880C
:1029A000FEF7E9FDFEF7E6F8002070BD0020F4E731
:1029B00001222378D906C90F8A4312011021CAE7E0
:1029C000012108002378DA07D20F90430200C2E702
:1029D000012263781907C90F8A430821D2008B436B
:1029E00058E70120E1E7C0460090FFFF14220020D5
:1029F000FF8FFFFFF8B5140042791D0006AB1F786A
:102A0000274B002A11D01C7000F0D4FA254B1880F7
:102A100023002033DBB2072B06D8072301202340F5
:102A20009840C0B2FDF796FEF8BD1E78A6422DD1A3
:102A30001C4B188800F0C3FAC72827D82C00203474
:102A4000AE4215D033002033DBB2072B06D8072364
:102A500001201E40B040C0B2FDF784FEE3B2072B58
:102A600006D8072301202B409840C0B2FDF772FE24
:102A70003800E4B2FDF766FE072CD5D80723012005
:102A80001D40A840C0B2FDF76DFECDE72300203306
:102A9000DBB2072BC8D8072301201C40A040F1E778
:102AA000301E00202E1E0020204B13B5C0180C0035
:102AB000062833D8FDF738FC141A040E20262C0003
:102AC00026230093BB331A0019492000FFF792FF19
:102AD000002016BD27230093BE331A001549F4E7E2
:102AE0002623E02200931449BB33EEE72723E42298
:102AF00000931249BE33E8E72623E22200931049EF
:102B0000BB33E2E72723E62200930E49BE33DCE71E
:102B10002823E52200930C49273BD6E74B79002B6D
:102B200002D00022094B1A700120D2E7E883FFFF90
:102B30001A7C00001B7C0000187C0000197C00003F
:102B40001C7C00001D7C00001E7C0000301E00204C
:102B5000014B18607047C046341E0020034B10B56F
:102B60001B68181E01D01B68984710BD341E00203A
:102B7000034B10B51B68002B01D05B68984710BD54
:102B8000341E0020044B10B51B68002B03D0062216
:102B900002709B68984710BD341E00200D4B10B585
:102BA0001C6800F025F902340622012807D10A4BDF
:102BB0001B787F2B03D9094B18321C680234002084
:102BC000A2182178002901D00130C0B2013494420A
:102BD000F7D110BDC407002014220020C007002038
:102BE00010B5041E01D1002010BD00F001F901282C
:102BF0000AD0104B1B689A1C08331178A14216D0DA
:102C000001329A42F9D1EEE70B4A12787F2AF0D9C5
:102C1000E108EF2CE7D8094A126852189178072288
:102C2000224090400840431E9841C0B2DCE701209A
:102C3000DAE7C046C407002014220020C0070020A5
:102C40000123002270B55B42851CAC5C8C420BD02A
:102C50005E1C02D1002C00D153B20132062AF4D1FD
:102C60005A1C01D0C318997070BD002210B5831C86
:102C700008301C788C4200D11A7001338342F8D19D
:102C800010BDCB08EF2907D8C01807231940063B11
:102C90008B408278134383707047CB08EF2907D8A5
:102CA000C0180723012219408A4083789343837018
:102CB0007047000010B5040000F09AF8012809D10F
:102CC000074B1B787F2B05D9064B21001868FFF7AF
:102CD000D8FF10BD044B21001868FFF7B1FFF8E7DB
:102CE00014220020C0070020C407002010B50400F3
:102CF00000F07EF8012809D1074B1B787F2B05D9FE
:102D0000064B21001868FFF7C8FF10BD044B2100D7
:102D10001868FFF7AAFFF8E714220020C007002078
:102D2000C407002010B500F063F801280BD1084B50
:102D30001B787F2B07D91E22064B18680230002112
:102D400003F00EF910BD044B062218680230F6E7B6
:102D500014220020C0070020C407002082B002B067
:102D6000704707B5FFF7FAFF07BD000007B5054933
:102D70000130C870042201A803F0FAF80198FFF7A7
:102D8000F0FF07BDCC070020032307B50449042248
:102D900001A8CB7003F0ECF80198FFF7E2FF07BD44
:102DA000CC07002010B5FFF7E1FF10BD012307B5E8
:102DB0000449042201A8CB7003F0DAF80198FFF768
:102DC000D0FF07BDCC07002010B5FFF7EFFF10BD07
:102DD00007B5431E984105490422887001A803F0F5
:102DE000C7F80198FFF7BDFF07BDC046CC0700201C
:102DF000014B98787047C046CC07002007B50549BD
:102E00000422487001A803F0B3F80198FFF7A9FF66
:102E100007BDC046CC070020014B58787047C0461C
:102E2000CC07002007B505490422087001A803F06B
:102E30009FF80198FFF795FF07BDC046CC0700201B
:102E400070477047704710B5FFF7FCFF10BD704723
:102E500010B5FFF7FCFF10BD10B5FFF7F1FF002420
:102E6000FFF756F8FFF7EDFF2000FEF7CBFE002836
:102E700004D10134E4B2052CF6D110BD0120FCE7E9
:102E800030B5050085B010220021684603F068F8CF
:102E9000684603F00FF86C462B0007CC07C32800E8
:102EA00022681A6005B030BD10B501F063FC01F076
:102EB00047F810BD10B5FDF77DFB024801F071FB2E
:102EC00010BDC0466842000010B5FEF7F7F9FEF7E6
:102ED0000BFAFFF727FFFDF773FB10BDD021BE22D1
:102EE000090652008B58002BFCD0BFF35F8F704750
:102EF00010B572B6FFF7F2FF01F054FC0022074B49
:102F00001860074B1A60074B1A60BFF35F8FD0231E
:102F10007D321B06FF329B5062B610BD401E002062
:102F20003C1E0020381E002010B5FFF7E1FF10BD49
:102F300070B572B6FFF7D2FF01F034FC154D164C98
:102F40002B682168154AC01A814208D9144E1168AD
:102F50008019144E9B192B60134BC9181160206007
:102F60001468BFF35F8FD023BE221B0652009B5014
:102F700062B6FA2200239200002103F015F8002324
:102F80000A4A801859410023094A03F005F820181D
:102F900070BDC046401E00203C1E0020381E002090
:102FA00080C20E00803DF1FF708541003F420F005E
:102FB00040420F0010B5FFF7BBFF80B210BD10B547
:102FC0000400FFF7B5FF001B80B210BD10B5040070
:102FD000FFF7AEFF001B10BDBFF34F8F034B044A3A
:102FE000DA60BFF34F8FC046FDE7C04600ED00E05A
:102FF0000400FA0510B5034802F096FF0021030013
:10300000080098475542000070B502F093FE0A4D43
:103010000A4B2A6800249A4205D009482B6000F028
:10302000C5FF2C6070BD07482C6002F07DFF2100B9
:10303000030020009847C04644230020BAB0FECACF
:10304000400D03005542000072B6D021BE22090691
:1030500052008B58002BFCD0BFF35F8F70470000ED
:1030600001007F22D4310B7870B51A400400212A68
:103070004CD15AB2002A20DA4A78022A1AD0032AFE
:1030800004D0012A19D100F0ABFD70BD4D790A7949
:103090002D02154311D1FFF7ABFE2200314BC83290
:1030A0001870136001232200D034CC3213602560E5
:1030B0000120EAE700F0CCFEE7E74A780A2A1ED0B2
:1030C0000B2A0ED0092A21D14A790879120202432B
:1030D000012A1BD82300244AC8331A60234D022337
:1030E000E1E74B790A791B02134302D18878FFF795
:1030F0006FFE22000023C8321D001360D3E7C8789A
:10310000FFF790FE200000F0CFFEBEE76022002512
:103110009343812B16D14B78062B13D14B790A7927
:1031200060681B02466813432000CA788978B0475C
:10313000A84201D10020A8E723004268C8331A60E2
:103140000368B0E79426B600094B5B59002B03D106
:103150009435B542F8D1EDE7200098470028F7D024
:10316000A6E7C0464C1E0020501E0020B1310010C2
:10317000FC080020002370B50B4CD4306360C2798A
:10318000817912020A434179057909022943857838
:10319000C078064B0002284300F04EFA20606068B9
:1031A000002800D0200070BD441E0020481E0020D2
:1031B000030010B5D4339979DB79074A1B021078E4
:1031C0000B43022B04D1012801D0062802D15078EC
:1031D000FFF714FE10BDC046501E002010B50F248E
:1031E000054A11784B1C2340044C24789C4202D0A1
:1031F000034C1370605410BD302200203122002097
:1032000020220020080010B5052943D8FDF78CF8CE
:10321000274203272743FFF717FF2C4800F028FB1E
:103220002B4800F025FB2B4800F022FB2A4800F039
:103230001FFB2A4800F02CFBBFF35F8FD023BE2278
:103240001B0652009B5062B6254B1B78002B02D008
:103250000520FFF7C3FF0220FFF7C0FF1AE0FFF7CA
:10326000BDFFFFF7F1FE194800F0DDFA184800F045
:10327000DAFA184800F0D7FA174800F0D4FA1748DD
:1032800000F0E4FABFF35F8FD023BE221B0652008A
:103290009B5062B610BDFFF7D7FE0C4800F0E2FA73
:1032A0000B4800F0DFFA0B4800F0DCFA0A4800F0A7
:1032B000D9FA0A4800F0D9FABFF35F8FD023BE22B3
:1032C0001B0652009B5062B60520C5E7740800201B
:1032D000080900209C090020300A0020EC0700208B
:1032E000521E0020102210B50021044802F038FEC2
:1032F0000022034B1A70034B1A7010BD20220020CD
:103300003022002031220020F8B50F2501240021B1
:10331000234B244A1E781378B34233D1002900D0BE
:103320001370F8BD1370204B1C70204B19780800E7
:10333000431E9841C0B2FFF727FDE8E71370002253
:10334000194B1A70FFF7C0FD184B19780800431E7F
:103350009841C0B2FFF726FDD9E71370134B1978D7
:103360000800431E9841C0B2FFF700FDCFE70021DF
:1033700013700800F8E71370FFF718FD2000FFF73F
:1033800027FDC4E718000A4F0133385C21002B40A9
:103390000528C1D8FCF7BEFFEFC0E1EBC6D2C0469E
:1033A0003022002031220020521E00203F23002026
:1033B00020220020F8B50400002594273E006E432B
:1033C000114B0135F618300000F0E0F9300000F044
:1033D00007FA042DF2D180260C4D7602280000F069
:1033E000EBF9280000F00EFA094D0A4B2000EE50D0
:1033F00001F0FFFB084801F0D4F82000074901F074
:10340000E3FB074BEE50F8BD74080020EC070020EA
:10341000000011504C30000050C3000094600010B8
:103420004C2000009423434307B504481818002398
:103430000093034B00F0B7FA0EBDC046740800209D
:10344000A086010010B50400FFF7D2FC082221007D
:10345000002803D10130FFF7E5FF10BD0120FAE796
:1034600010B5010020220020FFF7DCFF10BD7047DF
:103470007047000002006021D432127803000A4035
:103480000020202A0BD11A00D8321278022A06D145
:103490001A00D5321278212A02D81F2A07D870477D
:1034A000222AFCD11A00C8321060506005E01A00D0
:1034B0000449C832116007215160D03318600120DF
:1034C000EDE7C046D0070020704700001FB50F2170
:1034D000012269440870034B0092034800F063FA2C
:1034E00005B000BDA08601009C09002070470000C7
:1034F00030B585B0694600231022094800F0CAFAA9
:103500006D46011E04D1074800F095FA05B030BDA4
:103510000024285D0134FFF7E9FF102CF9D1E9E719
:10352000EC0700209C09002070477047704710B5D9
:10353000FFF7FAFF02F090FBFFF7F7FF10BD10B5A1
:1035400002F08BFBFFF7F2FF10BD10B5FFF73CFC5C
:1035500010BD000010B5FFF7C5FE0548FFF72AFFB4
:10356000044B054A05481A6001F01BF810BDC0461F
:1035700060220020541E0020D807002050C3000005
:1035800010B5024B1868FFF7E3FA10BD541E002077
:1035900070B5FFF7B9FE0C4C02252378052B0ED031
:1035A00070BDFFF787FCFFF757FC002807D023000A
:1035B000DC331B882B4202D0200001F0AFFB2378C4
:1035C000052BEED0ECE7C0466022002010B5FFF7D7
:1035D0008FFF00F0BFFB10BDF0B5144B85B01D7818
:1035E000002D20D101226C460F2668461A70FFF785
:1035F00047FC2B000E490F4D5A10A05C5A000709DA
:10360000EF5D8A18977000273040D7705A1C285CED
:1036100052008A1802339070D770202BECD12233DD
:103620000B703F3B4B7005B0F0BDC046581E0020EC
:10363000591E0020A460001070B51D00030A032B62
:1036400012D00AD8012B35D000221400022B01D150
:103650001E4C783210002C6070BD212B18D0222B0C
:103660001FD000221400F5E70022C0B21400032886
:10367000F0D8FCF759FE220205081822144CE9E79D
:103680001622144CE6E7FFF7A7FF134C2278E1E778
:10369000002915D0002214000129DBD10F4C09327A
:1036A000D8E700290FD0002214000129D2D10C4CF8
:1036B0003B32CFE712220B4CCCE704220A4CC9E77D
:1036C00009220A4CC6E74422094CC3E7EB6000100C
:1036D000CD600010B5600010591E0020166100106A
:1036E0007561001063610010E7600010FD6000105C
:1036F000B061001072B6D021BE22090652008B586C
:10370000002BFCD0BFF35F8F7047BFF35F8FD023D8
:10371000BE221B0652009B5062B6704737B5446B01
:10372000626F1378042B12D1250078352978033B7A
:103730008B4012891A420AD1200001A901F045F9F3
:10374000021E04D02978019B606F01F0D4FA37BDC6
:10375000026F70B513780400042B11D10500743585
:103760002978033B8B4052891A4209D101F07DF838
:10377000021E05D0E3692978206F043B01F0A8FA06
:1037800070BD10B5406BFFF7E3FF10BD1FB5030020
:103790000200084954330191C16F02900091C36443
:1037A0000832031D0121DB6FD26F01F0E8F805B08C
:1037B00000BDC0461D3700101FB50300543303651C
:1037C000064B021D0193836F029000930121C36F8A
:1037D000D26F01F025F805B000BDC0468337001058
:1037E00010B50400FFF786FF230078331B78626F63
:1037F00011339B00D3185C6000238C342370FFF7D7
:1038000084FF10BD10B50400FFF774FF230074336C
:103810001B78226F21339B009C500023843423703B
:10382000FFF773FF10BD0123022110B504000372DE
:10383000494200F0ECFE2000903401F0B8F8236813
:10384000002B02D0DA681868904710BD01230221CE
:1038500010B504000372494200F0D9FE200000F0C8
:10386000F7FF10BD002303727047002303727047F7
:103870000300020010B50400783319783832406F25
:1038800001F0E2F9200001F092F80023237210BD4C
:103890000300020010B50400743319783832006F49
:1038A00001F0D2F9200000F0D3FF002320002372A2
:1038B000FFF74EFF10BD0B0011339B00C318F7B587
:1038C0005C6805000E00002C46D0FFF713FF2300B4
:1038D00000228C331A70226963699A4202D1E3682C
:1038E000002B19D1B31C9B00EB185B685B691B684C
:1038F000002B11D0270090373B68002B09D001A97D
:10390000200001F062F801003868019A83680068BD
:103910009847200001F067F8200001A901F055F850
:10392000019B021E12D1B31C9B00EB185B681A6846
:10393000022A0FD15A69116800290BD01A8A0B008C
:10394000013A1340114205D12A00D4323100280037
:1039500001F0D1F9FFF7D9FEF7BD0B0021339B0031
:1039600070B51E5805000C00002E1BD00234A400B8
:103970002D19FFF7BFFE6B689B695B68002B0CD0AD
:10398000330074331B78326F02339B00D3185B68AB
:1039900030009B69596800F072FF3000FFF7D8FED5
:1039A000FFF7B3FE70BDF0B5040085B01D000AAB93
:1039B0001B78029103930192FFF79CFE636F1B78C3
:1039C000042B04D0FFF7A1FE002005B0F0BD2700B6
:1039D0008C373B78002B03D001356B425D416D4243
:1039E000FFF793FE2B002000019A029901F060F886
:1039F000019B0600834215D973425E41FFF77AFEB0
:103A00003B7802211E43012320003E70494223726D
:103A100000F0FDFD200000F0CAFF0023237200F03B
:103A2000FBFCDDE7039B002B01D00120CDE720004C
:103A300001F07FF8F9E770B50400002903D12000F8
:103A400001F077F870BD836A002BF8D0C56AED1AD3
:103A5000002DF4DD00222000110001F005F8013DE9
:103A6000F6E770B50500FFF745FE2A696B6900248B
:103A70009A420BD1EB68A34208D06B6F78352A7855
:103A8000013494401B891C4063425C41FFF73DFEBA
:103A9000200070BDF7B506001D0014000191FFF76E
:103AA00029FE336F1B78042B03D0FFF72EFE002076
:103AB000FEBD370084373B78002B03D001356B42C5
:103AC0005D416D42FFF721FE2B002200300001997D
:103AD00000F016FF43424341201A3B7043425841D5
:103AE000C0B2E5E772B6D021BE22090652008B585B
:103AF000002BFCD0BFF35F8F7047BFF35F8FD023E5
:103B0000BE221B0652009B5062B67047F8B507688C
:103B100006000D001400002F09D000F043FE78606D
:103B20003068220084642900083002F021FAF8BDD0
:103B30000168130010B5002906D08A6C08331A6496
:103B40000831180002F014FA10BD036810B5040023
:103B5000002B09D018009A6C0021083002F000FAFE
:103B6000002223681A605A6010BDF8B50B780D006A
:103B70001600082B0ED89B00C4182768002F09D008
:103B800000F010FE7860206832008664290008305A
:103B900002F0EEF9F8BD030010B51000082909D8AD
:103BA0008900C958002905D08A6C083002640831A0
:103BB00002F0DEF910BD70B505000400243523685D
:103BC000002B09D018009A6C0021083002F0C8F9C7
:103BD000002223681A605A600434AC42EFD170BDF1
:103BE000020070B5D432137904000020032B1BD8D7
:103BF0009178082918D80D4AD25C032A14D8942346
:103C000053430B4A9B58181E0ED00A4D18682A00C1
:103C10005E68B0472300084AC8331A60AA6C0120C6
:103C20005A600023D034236070BDC046BC0B002016
:103C3000040900205C200020642000200368002B81
:103C400007D091001960511E8A41024B19780A432E
:103C50001A707047A82000200368181E02D0186848
:103C60008008C0B270470000036870B50400002BE4
:103C700001D1002070BDFFF735FF23681D685C6827
:103C8000FFF73BFF002DF4D000F08CFDFA22001B63
:103C9000002400232100920002F086F90023054A47
:103CA000801859410023044A02F076F9A842644181
:103CB000E0B2DFE73F420F0040420F004B1E072BF0
:103CC0000BD889000B58002B07D091001960511EAA
:103CD0008A41024B19780A431A707047A8200020C5
:103CE00003000020082906D88900CB58181E02D0EE
:103CF00018688008C0B2704770B5082901D9002043
:103D000070BD890044182368002BF8D0FFF7EAFE45
:103D100023681D685C68FFF7F0FE002DEFD000F00F
:103D200041FDFA22001B002400232100920002F032
:103D30003BF90023054A801859410023044A02F048
:103D40002BF9A8426441E0B2DAE7C0463F420F00D7
:103D500040420F00F0B5394B85B01B78002B40D0A6
:103D600000252F00364B0293029B1C68002C30D09C
:103D7000002D38D101230193FFF7B4FE6B461B7968
:103D800020680393039963699847431E984107434A
:103D9000FFF7B3FE2B48FFF764FE002814D0A36999
:103DA00003992068984700280ED0FFF79BFE264E07
:103DB00003993200206863689847FFF79EFE002051
:103DC0002249B26CFFF72EFB019B01330193092BB3
:103DD000D2D1029B013594330293042DC4D1174BE9
:103DE0001F7005B0F0BDFFF77DFE002163692068FC
:103DF00098470190FFF781FE02989038FFF731FE57
:103E0000002805D00021A36920689847002804D124
:103E1000019B5A1E93411F43DBE7FFF763FE0A4EE7
:103E200020683200002163689847FFF766FE074963
:103E3000B26CE8B2FFF7F6FAEAE7C046A820002025
:103E40000409002074080020102000201820002001
:103E5000020010B5D432137904000020032B1BD8C4
:103E60009178082918D80D4AD25C032A14D89423D3
:103E700053430B4A9B58181E0ED05A691868904736
:103E80002200084BC8321870136023000120CC3385
:103E900018600023D034236010BDC046BC0B002046
:103EA000040900200C200020020070B5D4321379E0
:103EB00004000020032B19D89178082916D80C4843
:103EC000C55C0020032D11D894236B4309481B586F
:103ED000181E0BD01868D2781D69A847220000234D
:103EE0000120C832D03413605360236070BDC046D7
:103EF000BC0B0020040900207047FEE7F0B5082045
:103F000000240E494A680E6815008B68AB4210D831
:103F1000D51E0026AB4203D303339B1A9B089E0099
:103F2000CB689219934207D8013810310028E9D1A3
:103F3000F0BD80CE80C5E9E710C2F3E7F461001060
:103F4000012310B50B4C237000236360A360E36072
:103F500000F004FC0849094800F074FA02232370B9
:103F6000BFF35F8FD023BE221B0652009B5062B668
:103F700010BDC04634220020A0620010C00C0420F6
:103F800072B6D02109060B68054A9B00D3185B68FE
:103F9000986502235B424B6505331370FEE7C0460C
:103FA0003422002010B500F0F9F810BD034A916AE0
:103FB000936A5B1A9842FBD87047C04600400540A0
:103FC000024AD3680343D3607047C04634220020BE
:103FD00010B503689C68A2420CD85C688A600B60CC
:103FE0004C602160596099688A1A9A6001235B428B
:103FF000836010BD1B68121BECE70000F7B5C260C0
:104000001C008B60036848600B60150059600160FC
:10401000142C00D21424D0231B061B68114F9B00C4
:10402000FB185B682919986A00F0C6FB142600F09B
:10403000B9FB0190431B9C420DD8D0231B061B6883
:10404000741C9B00FB185B682919986A00F0CCFB74
:104050002600019DEBE7142E02D90120FFF7B0FFE7
:10406000F7BDC04634220020F8B504000D00142925
:1040700000D21425D02714263F063A680B4B920035
:104080009B185B686119986A00F0AEFB00F08AFB30
:10409000041BA54203D8013635000400EDE7142EB9
:1040A00002D90120FFF78CFFF8BDC0463422002062
:1040B000F8B5040015000E0000F074FB226894426D
:1040C00006D102002B0031002000FFF797FFF8BD5A
:1040D000E368C31AEF189F4200D22F009368BB42D7
:1040E00002D92900FFF7C0FF3A0031002000FFF796
:1040F0006FFFECE770B50400D0200006056823616F
:1041000000230648AD0040194068E26010300A0004
:1041100063612100FFF7CCFF70BDC0463422002050
:1041200070B5D0252D062B681B4A9B00D3185C6800
:10413000236998420CD003684268816813605A6012
:104140009A6852189A6000230360013BA36170BD16
:1041500023000168103321614B6000210160216957
:104160008B4207D12B689B00D2185368986A00F0E5
:1041700031FBECE78B6882689B188B6000F012FBC8
:104180002369E1699B68421A9342E0D9C918091A68
:10419000FFF76AFFDBE7C04634220020F0B5D027E6
:1041A0003F063B68354A9B00D3185D6885B02E00FA
:1041B000039210362C6900F0F5FAE969A368421AF7
:1041C000934251D8CB18EB61626800932368136067
:1041D0005A60002323602B699E4207D13B68039AF3
:1041E0009B00D3185B68986A00F0F4FABFF35F8F06
:1041F000BE235B00FF5062B62000E3682169984748
:1042000072B6BE235B00FB58002BFAD0BFF35F8F62
:104210006369002BCED000F0C5FA009A0290831A91
:104220000193019A636993420DD20220FFF7C8FE01
:1042300000232A6996420BD121003000029AFFF731
:10424000DDFE05B0F0BD009A9B18029A9B1AF0E7BC
:10425000019A01999A188A4200D313001A0021008A
:104260003000FFF7B5FEA5E72A699642E9D0C918E4
:10427000091AE861A160FFF7F7FEE2E734220020A7
:1042800000238268037503691B6899689142FBD219
:104290005A6803604260106058607047002382686B
:1042A000037503691B6899689142FBD85A680360DB
:1042B000426010605860704710B572B6D023BE22BD
:1042C0001B06520098580028FCD0BFF35F8F087D72
:1042D00005280CD8FCF728F8030B0B081C18BFF3B3
:1042E0005F8F9B5062B610BD00228B691A6001235C
:1042F0005B4208008B61FFF7C3FFBFF35F8FD023E2
:10430000BE221B065200ECE78A6993680133936072
:104310004A680B6813605A60E9E70000D022120671
:104320001168084B89005B185B68016910B59942F8
:1043300005D0136D9B0702D501235B425365FFF740
:104340009FFF10BD34220020D0231B061A68084BA3
:1043500092009B185B6810B5D968087518680268E8
:104360001A60536001220275D860FBF7AFFF10BDE1
:1043700034220020D0231B061A6830B50E4B920061
:104380009B185B680400DD6887B04B1C10D02B00C5
:1043900068460A4AFFF7AEFE2000FFF7D5FF009BF4
:1043A000002B02D06846FFF7BBFEA86907B030BDFE
:1043B000FFF7CAFFF9E7C04634220020B9420010D7
:1043C000D0231B061A68064B92009B185B68DA68BC
:1043D000196890688B689842804140427047C04697
:1043E00034220020D0231B061A680A4B92009B1827
:1043F0005B6810B51C68D86822681A605360012297
:104400002275DC60FFF74AFF01002000FBF75EFF2A
:1044100010BDC04634220020D0231B061A68074B6B
:1044200092009B185B6810B51A68DB6892689B68FD
:104430009A4201D9FFF7D6FF10BDC04634220020B2
:1044400030BFFDE7D023F0B50D0004001B061A684D
:104450001C4B910089B05B188262C562586000F005
:1044600003F92300103323616361012300265B42BB
:10447000A660A361E6612460646000F093F93300F4
:1044800002002100226263622000A66580330E4A8A
:10449000303100F03FF80127E06008223100077555
:1044A00006A801F05DFD094B01AC01936B6820008B
:1044B0000293AB6804970393054B059300F05AF8F9
:1044C00009B0F0BD342200207A6200107F62001033
:1044D0004144001072B6D021BE22090652008B580A
:1044E000002BFCD0BFF35F8F7047BFF35F8FD023EB
:1044F000BE221B0652009B5062B67047D0231B069B
:104500001A68034B92009B185B68D8687047C046D6
:104510003422002002228B604B62002308618A82D1
:1045200008000B62CB6170478268030010001969B4
:104530004C3A2838C2601161596951610B491162C6
:104540009A69D968002A06D1D0231B061A68084B3D
:1045500092009B185A6802230375002381604375FB
:10456000026141620362C3617047C046ED02001000
:104570003422002010B5FFF7D7FFFFF7CFFE10BDA4
:1045800010B50400FFF7BAFF84610F20FFF7DCFECF
:1045900010BD10B50400FFF79DFF2000FFF7F0FFEE
:1045A00010BD10B50400FFF795FF21000820FFF7AC
:1045B000E1FEFFF79AFF10BD0300006810B5002868
:1045C00004D000221A608161FFF7A8FE10BD70B50B
:1045D0000D000400FFF792FF002D09D0636804600E
:1045E00043602900186060600420FFF7C3FE70BDBF
:1045F00001204042FBE70300006810B5834205D06C
:1046000002681A6053608161FFF788FE10BD70B5C3
:1046100004000D002068844200D170BD036823604F
:104620005C608561FFF77AFEF4E7000072B6D02384
:104630001B061A68034B92009B185B68024A9A6536
:10464000FEE7C0463422002084620010EFF30983A5
:10465000203383F30988BFF35F8FD023BE221B066C
:1046600052009B5062B6704710B50400806A00F09B
:104670009FF8D0230C221B061A65A36A002B0DD1CC
:10468000C320C0210D4A8000135809061B021B0AD3
:104690000B43135080231B02136010BD012BFCD170
:1046A000C420FF22054B8000195891433F3A0A432A
:1046B0001A50802252021A60EFE7C04600E100E083
:1046C00010B50F3018D072B6D021BE2209065200A4
:1046D0008B58002BFCD0BFF35F8FEFF30984203C95
:1046E00084F3098880235B04E361FFF769FE034BD1
:1046F000002800D1024BA36110BDC046FF0200108C
:1047000002030010D0230C2270461B0610B51A6558
:104710000B3A196D114203D140BFFFF7D1FF10BD15
:10472000996DF6E7D0230C22704601211B0610B5C7
:104730001A651A6D0A4203D140BFFFF7C1FF10BDD1
:104740009A6D0232F5D1FFF771FFBFF35F8FD0236F
:10475000BE221B0652009B5070470000024B034ACA
:104760001A60034A5A607047442200204823002000
:104770000000042010B500F0C9FD00F0DFFD00F0DE
:1047800012FAFEF7DCFE00F001F810BD002210B5B1
:10479000034B1A605A609A60DA6000F045FE10BD63
:1047A0004C220020014B986A7047C04600400540EB
:1047B00010B500F049FE10BD054A031D9B0099503D
:1047C000012383405363916B0B4393637047C0464F
:1047D000004005400122824002498B6B93438B636A
:1047E0007047C04600400540024B04308000C15075
:1047F0007047C0460040054072B6D021BE2209066F
:1048000052008B58002BFCD0BFF35F8F7047BFF373
:104810005F8FD023BE221B0652009B5062B67047AA
:1048200030B5039D01722C00002104335C43C36149
:10483000049B14190363059B056200604060C1601E
:1048400042610261846142628162C162436330BD40
:104850000023022110B5426AC36042610261836293
:10486000C3624942FFF7D3FE10BD03694269934218
:1048700003D1C2680020824200D1181D704703692D
:1048800010B51960C2680132C260C2699B188269A2
:104890000361934201D3436A03610021FFF7ABFE3A
:1048A00010BD70B504000D00E368002B07D06269ED
:1048B0000020131D1268A3629B18E36208E0237AAC
:1048C000002B06D129002000FFF781FE0028EBDA3B
:1048D00070BD02204042FBE7C36810B5013BC269CE
:1048E000C36043699B1882694361934201D3436A61
:1048F000436100238362036B002B00D0984710BDF7
:10490000F7B504000E00009201930027FFF774FF33
:10491000A36A002B09D120000199FFF7C2FF0028EC
:1049200003D0FFF774FF3800FEBDA16AE56A009B63
:104930006D1ADB1B9D4200D91D00402D16D9300099
:10494000402201F015FBA36A403640334037E26A4B
:10495000A3629A4202D82000FFF7BEFFFFF757FF7D
:10496000009B9F42DFD2FFF747FFD1E730002A00CC
:1049700001F0FEFAA36A76195B197F19E7E70433A1
:1049800010B501721900C3610023029C8362614368
:10499000C362039B51180363049B00604060C460C2
:1049A00042610261816104624262436310BD036A35
:1049B00010B5C360436A0221436103610023494289
:1049C0008362C362FFF723FE10BD4269036910B51D
:1049D000934204D10023C46818009C4201D1100006
:1049E00008C80B6010BDC36810B50133C269C3604D
:1049F00043699B1882694361934201D3436A4361CF
:104A00000021FFF7F8FD10BD70B504000D00E3684C
:104A1000002B07D0236900201A1DA262E2699B18AF
:104A2000E36208E0237A002B06D129002000FFF77B
:104A3000CEFD0028EBDA70BD02204042FBE703699F
:104A400010B51960C268013AC260C2699B188269D8
:104A50000361934201D3436A036100238362036BC2
:104A6000002B00D0984710BD70B504000E00150053
:104A7000FFF7C2FEA36A002B09D129002000FFF72F
:104A8000C3FF051E03D0FFF7C2FE280070BDA36A56
:104A90001E70A36AE26A0133A362934204D3E16900
:104AA00020000439FFF7CBFFFFF7B1FE0025ECE74C
:104AB000F7B504000E00009201930027FFF79CFE5B
:104AC000A36A002B09D120000199FFF79DFF002860
:104AD00003D0FFF79CFE3800FEBDA06AE56A009B8C
:104AE0002D1ADB1B9D4200D91D00402D18D9310025
:104AF000402201F03DFAA36A403640334037E26A73
:104B0000A3629A4204D8E16920000439FFF797FFB5
:104B1000FFF77DFE009B9F42DDD2FFF76DFECFE7E2
:104B200031002A0001F024FAA36A76195B197F1973
:104B3000E5E710B50400FFF75FFEA36A002B07D07E
:104B40002269043B991A934202D02000FFF777FFB5
:104B5000FFF75DFE10BD72B6D021BE2209065200DD
:104B60008B58002BFCD0BFF35F8F7047BFF35F8F74
:104B7000D023BE221B0652009B5062B67047020033
:104B8000030010B50400D6321278DE331A7000F03C
:104B90008FFE63681B68002B02D00121200098471C
:104BA0000323237010BD10B500F05CFE10BD01237F
:104BB00010B578220400037000214C3001F0D0F9C8
:104BC00000236360A36010BD70B504000D00FFF703
:104BD000C2FF20004022002165600C3001F0C0F9C6
:104BE000200000F031FF02232370FFF7BFFF0020F9
:104BF00070BD70B50400FFF7AEFF200000F03EFE70
:104C0000002325006360013323700C354C342B687E
:104C1000002B10D05869002804D002210C304942E2
:104C2000FFF7CAFC2B689869002804D002210C30D9
:104C30004942FFF7C1FC002308C5A542E7D1FFF7B1
:104C4000EBFBFFF793FF70BD8B1C9B0070B5C31887
:104C5000050050690E0014005A60002803D020227D
:104C6000002101F07DF9A069002803D01C22002159
:104C700001F076F93100280000F024FE70BD00003C
:104C800070B50500060004008368104A1035134013
:104C900083604C362B68002B10D05869002804D054
:104CA00002210C304942FFF787FC2B6898690028E5
:104CB00004D002210C304942FFF77EFC002308C5D6
:104CC000B542E7D1200000F00BFF70BD01000100EC
:104CD00070B501258D4044892C4344818C1CA4006F
:104CE00004196468A46923600023A2606360E36020
:104CF00000F036FF70BD70B501258D4004892C434E
:104D000004818C1CA4000419646864692360002376
:104D1000A2606360E36000F03BFF70BD0378052B89
:104D20000AD18023054A9B0211680B43802113603E
:104D3000034A044B4901D1507047C04690001150BE
:104D4000000011504C200000F8B50223020003704F
:104D50000500002306000400DC3213600C3583607C
:104D60004C362B68002B15D0FFF7F5FE2B685869E1
:104D7000002804D002210C304942FFF71DFC2B68AB
:104D80009869002804D002210C304942FFF714FC36
:104D9000FFF7ECFE002780C5B542E2D12300C43303
:104DA0001F70200000F028FE63681B68BB4202D021
:104DB000390020009847F8BD037870B50400052B32
:104DC0002BD00200E03213700523037043681B6888
:104DD000002B01D004219847250000230C35A36047
:104DE0004C342B68002B15D0FFF7B5FE2B685869A3
:104DF000002804D002210C304942FFF7DDFB2B686C
:104E00009869002804D002210C304942FFF7D4FBF6
:104E1000FFF7ACFE0435A542E3D170BD017810B5B3
:104E2000052908D10300E0331B78037043681B6831
:104E3000002B00D0984710BDF7B50600C436337874
:104E40000400002B01D0002333702300D4331A0058
:104E50002000019300F07AFE63689B68002B18D154
:104E6000019B1A78602315001D401A4237D000219B
:104E7000200000F0AFFE0021200000F095FE6368E6
:104E80001B68002B02D006212000984706233370B0
:104E9000F7BD200098470028E2D023002700DA332E
:104EA0001A78CC375B783D681B0213439D4201D9C9
:104EB0001D003B60019B1B787F2B00D81CE1002D5F
:104EC00000D10CE109233370FFF745FE22000021D9
:104ED000C8323B6812682000FFF70DFF09E123008C
:104EE0007F21D5331B780A401B0213438C4A93421F
:104EF00000D1DCE028D88022520093425CD00FD849
:104F0000012B51D0022B00D1A2E0002BAFD1220007
:104F10002100C832DC311160022151609360BCE78E
:104F200081225200934200D1A9E0FF32FF32934226
:104F30009DD12300D6331B78012B98D12200DC327F
:104F4000118801330B4342E08022120193424CD07E
:104F500022D8A022D200934240D0724A9B18012B43
:104F600000D984E72300D8331A785B7821001B022C
:104F7000134322006068D632D73147681278200088
:104F80000978B847002800D171E723004268C83388
:104F90001A6002685A601FE09022120193422BD0DF
:104FA000614A934200D062E7604A2300C8331A6026
:104FB00002225A60002216E02300D6331B78012B10
:104FC00000D054E722000221DC3213888B43138087
:104FD0002300C8331D605D609D605EE72300544A76
:104FE000C8331D605D609A6057E723002200C83314
:104FF000DF321A600122CDE72378042B11D1FFF7AD
:10500000AAFD2000FFF73CFEFFF7B0FD23000321BF
:10501000DF331D70636821701B68002B01D02000F6
:1050200098472300D6331B78002B0BD02200DF32A9
:1050300013700423237063681B68002B02D00221C5
:105040002000984722000023C8321360536065E7B0
:1050500023000F21D8331B78200019405BB2002BAE
:105060000ADA00F061FD012804D0022800D0FEE633
:10507000304A9AE7304A98E700F044FDF3E723000E
:10508000D6331B78002B00D0F1E62300D8331B78F1
:105090000F22190011401342D4D05BB22000002B24
:1050A00002DA00F0C3FDCDE700F0AAFDCAE7230055
:1050B000D6331B78002B00D0D9E62300D8331B78D9
:1050C0000F22190011401342BCD05BB22000002B0C
:1050D00002DA00F07FFDB5E700F066FDB2E71423C9
:1050E0003370FFF738FD2B002A0000212000FFF766
:1050F000EFFDFFF73BFDCBE6002D08D01523337005
:10510000FFF729FD2200C8323B681268EDE70B2348
:105110003370FFF720FD2B002A002900DBE6C04694
:105120000203000000FAFFFF020C0000B062001052
:105130007F4B0010AE620010AC62001070B506002C
:10514000C43604003078002842D00638C3B20F2B92
:1051500034D80F2832D8FBF7E7F83B313108253235
:1051600031313131313131313B3B2300CC339A7B0A
:1051700018680E335B781B021343984212D2E3681F
:10518000198A00F019FF0D1E0CD1FFF7E4FC2B006B
:105190002A0029002000FFF7AEFDFFF7E7FC0A23F5
:1051A00033700BE014233370FFF7D5FC002320008D
:1051B0001A001900FFF78CFDFFF7D8FC70BD230023
:1051C000D0331B68002B01D0200098470023E7E76D
:1051D0000021200000F0FEFC0021200000F0E4FC93
:1051E00063681B68002B02D0062120009847062325
:1051F000D6E770B50500C4352B780400142B29D0F0
:1052000019D8062B06D002D8002B03D070BD093B5D
:10521000022BFBD80021200000F0DCFC0021200044
:1052200000F0C2FC63681B68002B02D0062120003E
:10523000984706231AE0152BE8D10A3B2B70FFF79D
:105240008AFC002320001A001900FFF754FDFFF725
:105250008DFCDBE7C3689B695B68002BD6D103003C
:10526000D0331B68002B00D0984700232B70CDE76C
:105270000322F0B5FF26C0250240D20096408901E6
:1052800091400A4F83089B00DB19AD005C591F2237
:10529000B4430C435C51012302409340C0224009B7
:1052A0008000C019520083500360F0BD00E100E0AF
:1052B0001F23012203409A4030B543090B4C0C4D8B
:1052C0009B0019195B19DA67C0235B00CA500321E0
:1052D0008308084088409B001B19C024FC31814092
:1052E000A4001A598A431A5130BDC04600E100E0BB
:1052F00004E100E070470000034B1A6882431A6023
:105300009A681042FCD0704700C0004010B500F011
:1053100011FD052000F078FD074B18600220FFF713
:10532000EBFF80200003FFF7E7FF8020C002FFF7BC
:10533000E3FFFFF7DFFF10BD5C2200202021084BB8
:105340001A688A431A609A680A42FCD01A680549AA
:105350000A401A608022520099681142FCD07047BE
:1053600000C00040FFFEFFFF01220C4B70B57646E7
:105370005A6372B6D024BE2524066D006359002BF3
:10538000FCD0BFF35F8FFEF70DFEBFF35F8F64515C
:1053900062B63000FFF794F970BDC046004005408A
:1053A00002220C4B70B576465A6372B6D024BE25E5
:1053B00024066D006359002BFCD0BFF35F8FFEF70E
:1053C000F1FDBFF35F8F645162B63000FFF778F9EB
:1053D00070BDC046004005400422074B10B55A631B
:1053E000064B74469B68002B01D002209847200092
:1053F000FFF766F910BDC046004005404C22002072
:105400000822074B10B55A63064B7446DB68002B25
:1054100001D0032098472000FFF752F910BDC04685
:10542000004005404C2200200622064BDA62002292
:105430005A601A601A615A619A61DA619A630F328E
:105440005A6370470040054010B5044BC0001A185D
:105450005168C058FFF70CFF10BDC046B462001081
:105460007F220138C31713401B18DB110133DB0106
:1054700002329BB2FF3210B593420ED0FF2480223D
:105480000749D200240259181000214204D0181CE8
:10549000934200D9101C80B210BD80208000FBE731
:1054A00080FDFFFFF7B502318900401843681700FF
:1054B0005C691B8A216822698E1A9E4200D91E00EF
:1054C0000023180092198A425841226182030192F6
:1054D000217DB5B20A00501E824152030092012282
:1054E0004A40A06922759F4200D0A38BC0183200A9
:1054F000A16800F03DFD8420A36800029B19A36011
:10550000009B28431843019B1843002F00D0000440
:10551000FEBD0000F7B58B1C9B00C3185B680C1E1A
:105520005F691A4E019023D1194BDB6C00222100D8
:1055300001980093FFF7B6FF3A683B6905009A426D
:1055400005D0012221000198FFF7ACFF05436B0154
:1055500011D5104A009B13401A00A023DB0513430A
:10556000002C0FD10A4AD3641034E4003551F7BD42
:10557000CB00F358DAE7084A009B13401A00802357
:105580009B05ECE7E200B350EEE7C0460000105088
:1055900000001150FFFFFFDFFFFFFFAF01230231CB
:1055A000890030B540184568AC69A07C216843404B
:1055B000A3746B8A8B4200D90B00451EA84180253D
:1055C000ED001D43ADB2646840032843054D1B192F
:1055D0002840994202D88023DB011843002A00D0DA
:1055E000000430BDFF7FFFFF70B50C1E13D10F4BC1
:1055F000DD6C00222100FFF7D1FF0D4B1D40802301
:105600009B052B43002C0BD1084AD364094BE400C3
:10561000E418606070BD084ACB009B185D68E8E73D
:105620000549E20052185360F0E7C04600001150EF
:10563000FFFFFFAF80001050000010507346F0B520
:1056400087B005937F4B1C68E3030ED580227E4B09
:105650007E499202CA5001227D48C36899698A74C2
:1056600059690A755B6800219847E30407D58022D1
:10567000754B764912037648CA50FFF765FB630401
:1056800006D51022704B71497148CA50FFF794FB40
:10569000230407D580226C4B6C4912016C48CA5018
:1056A000FFF7BCFBA30317D5694D6B68DB68002BC4
:1056B00004D1684A684913680B4013602B78052BA6
:1056C00002D12800FFF7AAFB6B68DB68002B01D032
:1056D000280098475D4B9B6CE40604D40598FEF7C0
:1056E000EFFF07B0F0BD594B9B6D0493002303936C
:1056F00001330293049B002BF0D0039B202BEDD0B1
:10570000029B049A134223D0544B504A0299D15021
:10571000039B5C084E4B0193019AA31C9B00D3187A
:105720005F680123039A13400122013313423FD0E3
:105730007A691369536012689BB292B29A420FD091
:1057400021000198FFF7E6FE049B029A934304931D
:10575000029B5B000293039B0133DBB20393C9E717
:105760000122A240019B1B899343019A1381BB68CC
:10577000002B02D021001000984772B6BE256D00A4
:10578000D0231B065B59002BFAD0BFF35F8F019B20
:105790000234A4001C196368002158690C30FEF71C
:1057A0000BFFBFF35F8FD0231B065B5162B6CBE7C5
:1057B0002B4AE3009B181E68BD69B605B60D320082
:1057C000A868696900F0D4FBAB689B19AB606B6893
:1057D0009B196B602B689B1B2B602B8A013B9BB238
:1057E0002B82002B02D07B8AB34226D90122A24011
:1057F000174DA61C6B8993436B81B300EB185B6854
:10580000DB68002B02D021002800984772B6D02414
:10581000BE2724067F00E359002BFCD0BFF35F8F27
:10582000B600AD196B689B69180059680C30FEF71B
:10583000C3FEBFF35F8FE451B8E721000198FFF783
:10584000D3FE81E798001150503000000000115045
:105850006022002090001150FFFFFDFF5830000033
:105860008400105010B5044C2000FFF7A0F900236D
:10587000E234238010BDC04660220020094B10B5E1
:1058800098420DD10378012B0AD00022064B052047
:105890001A60FFF70DFDC1230121044A9B01D1507D
:1058A00010BDC04660220020900011500000115031
:1058B0007F22DE3003781340014A13607047C046F0
:1058C00000001150F0B58B1C9B00C3185F6885B0B9
:1058D0000C1E7E69BD6900900ED140233F4AB38300
:1058E000B2613175A97480216A612B833C4A3D4BBA
:1058F0008905D15005B0F0BD002E3AD03A4BCA0010
:10590000D3180393394B4020D2180023D367337543
:105910003A6802930192012A13D1388AFFF7A0FD59
:10592000802202239200904209D080220133D200CB
:10593000904204D0431EFF3B5A4253419BB2DB06C8
:105940000293009AE23294466346118842008A1814
:105950001A80274BB083CA18019B8131B261FF3195
:105960009A060A43802109061143039A029B02C248
:10597000D367002DBED01C4BE400E6181D4B402021
:10598000E4180023E367AB743C68012C12D1388A19
:10599000FFF766FD802202239200904209D0802208
:1059A0000133D200904204D0431EFF3B5A42534180
:1059B0009BB2DB06009AA406E232118847181780D2
:1059C0000B4A28838A186A6180228131FF310C4397
:1059D0001206224372600836F3678BE7000110500D
:1059E000000011504C200000000010500400105026
:1059F00080011050080010500E4B10B50021C360FC
:105A00000400FFF75FFF00230B4AE234136001221A
:105A100023800A49D0000A4C4018D1000C19836039
:105A2000E367C360074801320918CB670F2AF0D13A
:105A300010BDC046D462001000001150F8FF0F5096
:105A4000040010500800105070B51E4C844238D12C
:105A50002378012B35D180211B4B49041A681B4840
:105A60000A431A601A6802401A609A680A42FCD017
:105A700080220021D201164800F072FA8022002113
:105A80005201144800F06CFA0923114D20006B6795
:105A90000333AB67FFF7B0FF01232B6480239B0523
:105AA0000D4AEB640D4B1A606268D268002A04D07C
:105AB0008022196892020A431A6003210520FFF729
:105AC000D7FB70BD6022002000C00040FFFFFFFE3A
:105AD000000011500000105010D001009000115033
